:100000000C940E010C9436010C9436010C943601BC
:100010000C9436010C9436010C9436010C948A0C25
:100020000C9436010C9436010C9436010C94360174
:100030000C9436010C9436010C9436010C94360164
:100040000C94E60C0C9436010C9436010C94360199
:100050000C9436010C9436010C9436010C94360144
:100060000C9436010C94360108000000BE9224491D
:10007000123EABAAAA2ABECDCCCC4C3E00000080DA
:10008000BEABAAAAAA3E00000000BF000000803F4D
:100090000000000000084178D3BB4387D1133D190D
:1000A0000E3CC3BD4282AD2B3E68EC8276BED98F3A
:1000B000E1A93E4C80EFFFBE01C4FF7F3F0000007E
:1000C000000000407A10F35A00A0724E1809001088
:1000D000A5D4E80000E87648170000E40B540200BD
:1000E00000CA9A3B000000E1F505000080969800E8
:1000F000000040420F000000A08601000000102711
:1001000000000000E80300000000640000000000A0
:100110000A00000000000100000000002C76D888D2
:10012000DC674F0823DFC1DFAE59E1B1B796E5E3E5
:10013000E453C63AE651997696E8E6C28426EB89FE
:100140008C9B62ED407C6FFCEFBC9C9F40F2BAA59B
:100150006FA5F490055A2AF75C936B6CF9676DC133
:100160001BFCE0E40D47FEF520E6B500D0ED902E37
:100170000300943577050080841E080000204E0A95
:10018000000000C80C333333330F986E12831141D3
:10019000EF8D2114893BE65516CFFEE6DB18D1849E
:1001A0004B381BF77C1D901DA4BBE42420328472C5
:1001B0005E228100C9F124ECA1E53D27000000008A
:1001C000240027002A000000000023002600290048
:1001D0000000000800020100000304070000000006
:1001E0000000000001020408102040800102040801
:1001F0001020010204081020000000002500280043
:100200002B00040404040404040402020202020297
:100210000303030303030200FF16DB1711241FBEB1
:10022000CFEFD8E0DEBFCDBF12E0A0E0B1E0ECEA56
:10023000FFE302C005900D92AC38B107D9F723E077
:10024000ACE8B2E001C01D92A035B207E1F711E0C1
:10025000CDE0D1E004C02197FE010E94BD1DCC304D
:10026000D107C9F70E94300D0C94C91F0C940000EF
:1002700080910C0390910D03813091057CF18330C6
:1002800091051CF0039759F1089580910F03909107
:100290001003A0911103B091120383709927AA272C
:1002A000BB27846080930F0390931003A0931103E6
:1002B000B093120381E090E0A0E0B0E080931303DC
:1002C00090931403A0931503B09316038093170320
:1002D00090931803A0931903B0931A030895809183
:1002E0000F0390911003A0911103B091120381703C
:1002F0009927AA27BB278260D5CFAF92BF92CF9212
:10030000DF92EF92FF920F931F93CF93DF936C01D5
:100310007B018B01040F151FEB015E01AE18BF08B6
:10032000C017D10759F06991D601ED91FC91019068
:10033000F081E02DC6010995892B79F7C501DF9180
:10034000CF911F910F91FF90EF90DF90CF90BF90D2
:10035000AF900895833081F028F4813099F0823095
:10036000A9F008958730A9F08830C9F08430B1F43D
:10037000809180008F7D03C0809180008F77809373
:100380008000089584B58F7784BD089584B58F7DEE
:10039000FBCF8091B0008F778093B000089580915B
:1003A000B0008F7DF9CFCF93DF93282F30E0F90194
:1003B000E053FE4F8491F901EC51FE4FD491F901C5
:1003C000EE5FFD4FC491CC23A1F081110E94AA01E0
:1003D000EC2FF0E0EE0FFF1FEA53FE4FA591B49112
:1003E000EC91ED2381E090E009F480E0DF91CF9182
:1003F000089580E090E0FACF1F93CF93DF93282FEA
:1004000030E0F901E053FE4F8491F901EC51FE4FC9
:10041000D491F901EE5FFD4FC491CC23A9F0162FC2
:1004200081110E94AA01EC2FF0E0EE0FFF1FE850AF
:10043000FE4FA591B4918FB7F894EC91111108C0BB
:10044000D095DE23DC938FBFDF91CF911F9108956C
:10045000DE2BF8CF9091380189130BC0E6E1F2E072
:10046000E4919FEF90933801E13049F028F0E230B9
:1004700061F060E00C94FC0110926E00FACF909154
:100480006F009D7F90936F00F4CF909170009D7FDF
:100490009093700091E09093B0009091B100987F9C
:1004A00094609093B1001092B300E3CFCF93DF93A9
:1004B00090E0FC01EC51FE4F24918E5F9D4FFC01BA
:1004C00084918823C9F090E0880F991FFC01E454BF
:1004D000FE4FA591B491FC01E850FE4FC591D49117
:1004E00061110DC09FB7F8948C91209582238C9355
:1004F0008881282328839FBFDF91CF9108956230A0
:1005000051F49FB7F8943C91822F809583238C936C
:10051000E8812E2BEFCF8FB7F894EC912E2B2C93F4
:100520008FBFEACFCF92DF92EF92FF92CF936C0111
:1005300080913801833049F08F3F09F466C0CF9134
:10054000FF90EF90DF90CF900895E6E1F2E0C49144
:10055000C7FDF5CF61E083E00E945602F12CE12C4B
:10056000CC23D1F0960150E040E0C23009F0BCC08D
:100570007A0160E970ED83E090E00E94731BBA019C
:10058000A901415051096109710983E04F3F5105AB
:100590006105710559F154F168E478EE81E090E06D
:1005A000A70196010E94731BBA01A901415051098C
:1005B00061097109CC2309F4D4C0C23009F00EC11D
:1005C0004F3F51056105710509F00CF40EC164E25D
:1005D00074EF80E090E0A70196010E94731BBA01BE
:1005E000A901415051096109710985E09091B1005B
:1005F000987F892B8093B100C13009F48AC0C23042
:1006000009F49CC0C1119BCFC6C083E08093380120
:10061000E6E1F2E0C491CF3F09F491CFC13021F17E
:1006200050F0C23009F43EC0C7FD89CF61E083E0DD
:100630000E94560297CF14BC15BC84B5826084BD5D
:1006400085B5816085BDE5E0F2E0E491F0E0EE0F74
:10065000FF1FE850FE4F85919491E7EEF1E0E491A1
:10066000E0932703C0E076CF1092800010928100C3
:1006700080918100886080938100809181008160F9
:1006800080938100E5E0F2E0E491F0E0EE0FFF1FDF
:10069000E850FE4F85919491E7EEF1E0E491E0930C
:1006A000260358CF1092B0001092B1008091B00094
:1006B00082608093B0008091B10081608093B1002E
:1006C000E5E0F2E0E491F0E0EE0FFF1FE850FE4FAE
:1006D000859194919093250380932403E7EEF1E0B4
:1006E000E491E093230336CF60E072E18AE790E083
:1006F0000E94731BBA01A901415051096109710996
:10070000C13009F079CF80918100887F816080932A
:10071000810050938900409388008FEF9FEFDC01A8
:1007200080932C0390932D03A0932E03B0932F035B
:1007300080916F00826080936F0001CF4093B3007F
:100740008FEF9FEFDC018093280390932903A09300
:100750002A03B0932B038091700082608093700015
:10076000EECE93E04F3F51056105710581F07CF0BD
:1007700062E17AE780E090E0A70196010E94731B96
:10078000BA01A901415051096109710994E085B587
:10079000887F892B85BD47BD8FEF9FEFDC0180935C
:1007A000300390933103A0933203B09333038091CD
:1007B0006E00826080936E00C2CE62E17AE780E0D4
:1007C00090E0A70196010E94731BBA01A901415054
:1007D000510961097109C1E086E008CF4F3F510519
:1007E0006105710509F04CF7C1E084E0FFCE1F936D
:1007F000CF93DF93182FEB0161E00E945602209700
:1008000039F460E0812FDF91CF911F910C94FC01AE
:10081000CF3FD10511F461E0F5CFE12FF0E0E053D7
:10082000FE4FE491E33031F140F4E130B1F0E230D9
:10083000E1F0C038D1057CF7E4CFE73029F1E830AA
:1008400059F1E430B1F7809180008062809380009C
:10085000D0938B00C0938A0004C084B5806884BDA7
:10086000C7BDDF91CF911F91089584B5806284BD8B
:10087000C8BDF7CF80918000806880938000D093BE
:100880008900C0938800EDCF8091B000806880938C
:10089000B000C093B300E5CF8091B0008062809338
:1008A000B000C093B400DDCF2091010190E4299FF6
:1008B000900111248E50822B80937C0080917A00CD
:1008C000806480937A0080917A0086FDFCCF8091CD
:1008D00078009091790008953FB7F894809199023B
:1008E00090919A02A0919B02B0919C0226B5A89B80
:1008F00005C02F3F19F00196A11DB11D3FBFBA2FB2
:10090000A92F982F8827BC01CD01620F711D811D71
:10091000911D42E0660F771F881F991F4A95D1F7F6
:1009200008958F929F92AF92BF92CF92DF92EF92F3
:10093000FF924B015C010E946C046B017C010E94E0
:100940006C046C197D098E099F09683E734081050E
:100950009105A8F321E0821A9108A108B10888EE58
:10096000C80E83E0D81EE11CF11C81149104A1047F
:10097000B10429F7FF90EF90DF90CF90BF90AF9038
:100980009F908F9008952FB7F89460919502709181
:10099000960280919702909198022FBF0895089532
:1009A00090E080E008954F925F926F927F928F92D5
:1009B0009F92AF92BF92CF92DF92EF92FF920F93EE
:1009C0001F93CF93DF93CDB7DEB72A970FB6F89476
:1009D000DEBF0FBECDBF85E690E09A878987812C68
:1009E000912C54018D829E82AF82B88624013501FC
:1009F000A985BA851197BA87A987AB2B09F4C0C01E
:100A000084E10E9454048C0183E10E945404BC01DF
:100A1000990F880B990B0E94401A69837A838B8304
:100A20009C83B801110F880B990B0E94401A20E09B
:100A300030E040EA50E40E949F1A20E030EC4FE79B
:100A400054E40E94721C20E038E64FE357E40E9411
:100A50009F1A20E030E44CE156E40E94721C209181
:100A6000AE023091AF024091B0025091B1020E94AB
:100A70009F1A2091AA023091AB024091AC02509192
:100A8000AD020E94061C6B017C012DEC3CEC4CE499
:100A90005DE30E94391A87FD6AC0C0929002D0922D
:100AA0009102E0929202F092930220E030E040EA5C
:100AB00050E469817A818B819C810E949F1A20E099
:100AC00030EC4FE754E40E94721C2091A602309152
:100AD000A7024091A8025091A9020E94051C2091F2
:100AE000A2023091A3024091A4025091A5020E945B
:100AF000721C6B017C012DEC3CEC4CE45DE30E942C
:100B0000391A87FF03C0C12CD12C76018091900245
:100B100090919102A0919202B091930289839A835D
:100B2000AB83BC83A7019601BC01CD010E949F1A33
:100B30009B01AC01C501B4010E94061C4B015C0184
:100B400029813A814B815C816D817E818F8198857D
:100B50000E94061C6D837E838F839887A701960170
:100B6000C301B2010E94061C2B013C0141CF10922F
:100B7000900210929102109292021092930295CFDD
:100B800020E030E048EC52E4C301B2010E94721C44
:100B90006093F0027093F1028093F2029093F3025B
:100BA00020E030E048EC52E4C501B4010E94721C20
:100BB0006093EC027093ED028093EE029093EF024B
:100BC00020E030E048EC52E46D817E818F81988591
:100BD0000E94721C6093F4027093F5028093F602F7
:100BE0009093F7022A960FB6F894DEBF0FBECDBFE2
:100BF000DF91CF911F910F91FF90EF90DF90CF90F9
:100C0000BF90AF909F908F907F906F905F904F902C
:100C100008950F931F93CF93DF938091BD0281308E
:100C200011F00E943801809108030E94D301182F0F
:100C300080910A030E94D301EC010E94C304AB011E
:100C4000BC01CC0FDD1FC12B80910E03C81709F426
:100C50006BC0E0910E0300910F03109110032091DF
:100C600011033091120384E0E802F00111248C2F6B
:100C70000C2E000C990BE82BF92BE15CFE4F9081B8
:100C8000892F990F990BAA0BBB0B800F911FA21FE5
:100C9000B31F80930F0390931003A0931103B0939D
:100CA0001203C0930E0380910C0390910D038230C8
:100CB0009105C1F18330910509F445C00197A1F573
:100CC000C33091F580910F0390911003A09111030F
:100CD000B091120332E0B595A795979587953A950F
:100CE000D1F78093130390931403A0931503B0934B
:100CF000160380911B0390911C03A0911D03B091DA
:100D00001E0380931F0390932003A0932103B093AD
:100D1000220340931B0350931C0360931D037093A5
:100D20001E0302C0CC2371F280911303909114032F
:100D3000A0911503B09116038093BD02DF91CF916E
:100D40001F910F910895CC2311F0C33069F7809162
:100D50000F0390911003A0911103B0911203B59568
:100D6000A79597958795BDCF0E94C3046093CE0247
:100D70007093CF028093D0029093D1020E94C3045B
:100D80006093CA027093CB028093CC029093CD0201
:100D90008091E00281110DC087E295E00E949202ED
:100DA00062E070E080E090E00E94910483E00C94A7
:100DB0002A0208950E94C3046093CA027093CB0272
:100DC0008093CC029093CD028091E002811121C0EA
:100DD00087E295E00E9492026CE370E080E090E090
:100DE0000E94910487E994E00E94920264E170E01D
:100DF00080E090E00E9491048CED93E00E949202CA
:100E000064E170E080E090E00E94910483E00C9443
:100E10002A0208950E94C3046093CA027093CB0211
:100E20008093CC029093CD028091E002811121C089
:100E30008CED93E00E94920264E170E080E090E02B
:100E40000E94910487E994E00E94920264E170E0BC
:100E500080E090E00E94910487E295E00E94920277
:100E60006CE370E080E090E00E94910483E00C94D9
:100E70002A0208952091E7022230A9F18091BD0253
:100E8000823008F44DC080910001409106035091DA
:100E90000703840F952F911D9093070380930603FA
:100EA00021110AC08F339640A0F08FE396E0909313
:100EB0000703809306030DC0213059F42091E80206
:100EC0003091E9028217930720F0309307032093B3
:100ED0000603809106039091070390938900809305
:100EE00088000E94B4068EE00E94D301892B89F508
:100EF0008091F80291E089278093F802882321F1FC
:100F000081E2809300010E940A078EE00E94D301D3
:100F1000892BD9F364E670E080E090E00C949104B2
:100F20008111E1CF20910001809106039091070388
:100F3000821B91098F3326E0920708F4B8CF1092F4
:100F4000070310920603C5CF909300010E94DA06B2
:100F5000DCCF0895FC0101900020E9F73197AF0143
:100F6000481B590BBC0184E393E00C947D018F92E4
:100F70009F92AF92BF920F931F93CF93DF93CDB702
:100F8000DEB7A1970FB6F894DEBF0FBECDBF19A292
:100F9000423008F44AE08E010F5D1F4F842E912CE1
:100FA000B12CA12CA50194010E94D41BE62FB901FC
:100FB000CA01EA30F4F4E05DD801EE938D01232BF1
:100FC000242B252B79F790E080E0109719F0CD01C4
:100FD0000E94AA07A1960FB6F894DEBF0FBECDBF40
:100FE000DF91CF911F910F91BF90AF909F908F9005
:100FF0000895E95CE1CF0C94AA07CF93DF93EC014D
:1010000060E08E810E94FC0161E08E810E94FC0103
:1010100060E08E810E94FC018BE891E00197F1F77E
:10102000DF91CF910895CF92DF92EF92FF920F93CD
:101030001F93CF93DF936C017C0187E0E80EF11CD6
:10104000D0E0C0E0062F10E0B8010C2E02C075956C
:1010500067950A94E2F76170F70181917F010E9420
:10106000FC012196C430D10579F7C601DF91CF91FB
:101070001F910F91FF90EF90DF90CF900C94FD07A0
:10108000CF92DF92EF92FF920F931F93CF93DF9354
:10109000EC01F62E642F8C810E94FC018D818F3F24
:1010A00019F060E00E94FC010F2D10E08F8584FF95
:1010B00025C06E0187E0C80ED11CF12CE12CB801CF
:1010C0000E2C02C0759567950A94E2F76170F601DF
:1010D00081916F010E94FC01FFEFEF1AFF0A88E087
:1010E000E816F10461F7CE01DF91CF911F910F91C6
:1010F000FF90EF90DF90CF900C94FD07B80184E053
:10110000759567958A95E1F7CE010E9413086F2DBA
:10111000CE01DF91CF911F910F91FF90EF90DF9063
:10112000CF900C94130840E0682F84E393E00C9474
:10113000400881E00E9493088BE39FE10197F1F75B
:101140000895CF93DF93823029F490914303986000
:1011500090934303809347031092480380E4809365
:10116000490380E180934A0380E580934B0361E06B
:10117000809138030E945602809139038F3F19F005
:1011800061E00E94560261E080913A030E9456029B
:10119000C4E3D3E09E01245333408091430384FD94
:1011A0000BC084E090E021962817390744F461E0F1
:1011B0008E810E945602EECF88E090E0F4CF8BE360
:1011C0009DE00197F1F760E0809138030E94FC01F7
:1011D00060E080913A030E94FC01809139038F3FC7
:1011E00019F060E00E94FC018091430384FD34C04B
:1011F00063E084E393E00E941308CBE4D6E4CE01DD
:101200000197F1F763E084E393E00E9413082197CC
:10121000F1F763E084E393E00E94130883E592E032
:101220000197F1F762E084E393E00E941308809154
:10123000430380620E94930884E0809344038CE01F
:101240000E9493080E94990882E08093450386E0FB
:10125000DF91CF910C94930880620E9493088BE4F5
:1012600096E40197F1F78091430380620E9493080E
:1012700083E592E00197F1F78091430380620E9439
:101280009308D5CF643008F063E090914703691765
:1012900010F06FEF690FE62FF0E0EC5CFC4F9489E3
:1012A000890F80680C94930841E00E94400881E017
:1012B00090E008950F931F93CF93DF938B0128E065
:1012C000829FC001112480640E949308E801085F96
:1012D0001F4F699184E393E00E945409C017D1071E
:1012E000C1F7DF91CF911F910F910895880F991F3A
:1012F000FC01E158FE4F855A9E4F6081FC018081C0
:101300000E94420965E084E393E00C94540941E0B3
:10131000682F84E393E00E94400881E090E0089504
:101320004F925F926F927F928F929F92AF92BF92F5
:10133000CF92DF92EF92FF92CF936B017C01AC01D1
:101340009B010E946F1D882389F083EA91E0CF9171
:10135000FF90EF90DF90CF90BF90AF909F908F90D5
:101360007F906F905F904F900C94AA0746015701B1
:10137000E894B7F82FEF3FEF4FE75FE7C501B401FF
:101380000E946F1D81110DC02FEF3FEF4FE75FE708
:10139000C501B4010E94391A18161CF487EA91E0BD
:1013A000D6CF2FEF3FEF4FE75FE4C701B6010E94B2
:1013B0001A1D18161CF48BEA91E0C9CF2FEF3FEFEE
:1013C0004FE75FECC701B6010E94391A87FDF3CFE2
:1013D00020E030E0A901C701B6010E94391AB12C02
:1013E000A12C87FF08C08DE20E9487095C01F7FAF3
:1013F000F094F7F8F09426E137EB41E558E3C701A4
:10140000B6010E94061C2B013C010E94EB1C6B01E3
:101410007C010E943E1A9B01AC01C301B2010E94F3
:10142000051C2B013C014AE0C701B6010E94B70729
:101430007C01EA0CFB1C8EE20E948709E80EF91E73
:10144000C5E0C15019F120E030E040E251E4C301B1
:10145000B2010E949F1A2B013C010E94EB1C4B0120
:10146000B12CA12C4AE0C501B4010E94B707E80ED7
:10147000F91EC501B4010E943E1A9B01AC01C301D3
:10148000B2010E94051C2B013C01DBCFC701CF91AB
:10149000FF90EF90DF90CF90BF90AF909F908F9094
:1014A0007F906F905F904F900895CF93C42F0E94CC
:1014B00042098C2FCF910C948709FF920F931F93B1
:1014C000CF93DF93EC01F62E08811981C8010E94A9
:1014D0005D1BF81621F06F2DC8010E94651BCE011F
:1014E000DF91CF911F910F91FF900895EF92FF929E
:1014F0000F931F93CF93DF9300D0CDB7DEB78C014E
:101500007B019A838983FB016081CE0101960E9451
:101510005D0A0F5F1F4F1A830983F7016181CE01B6
:1015200001960E945D0AC7010F900F90DF91CF9145
:101530001F910F91FF90EF900895AF92BF92CF92BD
:10154000DF92EF92FF920F931F93CF93DF9300D020
:10155000CDB7DEB78B016B0124E0C20ED11C7B013D
:101560005C01A61AB70AC5018E0D9F1D9A83898357
:10157000F70161917F01CE0101960E945D0AEC1492
:10158000FD0489F7C8010F900F90DF91CF911F9153
:101590000F91FF90EF90DF90CF90BF90AF900895A4
:1015A0000F931F93CF93DF9300D0CDB7DEB78B019E
:1015B0009A838983FB016081CE0101960E945D0AB6
:1015C000C8010F900F90DF91CF911F910F91089557
:1015D0000F931F93CF93DF938C01EB010E945D1B50
:1015E0008883C80101960E945D1B8983CE01DF912B
:1015F000CF911F910F910895CF93DF93EB010E943C
:101600005D1B8883CE01DF91CF910895CF92DF9249
:10161000EF92FF920F931F93CF93DF93EB017B0128
:1016200024E0E20EF11C8B016C01C61AD70AC60138
:10163000800F911F0E945D1BF80181938F01EE15B1
:10164000FF05A9F7CE01DF91CF911F910F91FF9078
:10165000EF90DF90CF900895EF92FF920F931F933A
:10166000CF93DF93CDB7DEB72A970FB6F894DEBFDE
:101670000FBECDBFF42EE22E8E010F5F1F4F23E071
:1016800046E00E94E4178981803211F480E3898367
:101690006E2D8F2D0E944209CE0101960E94FB07FC
:1016A0002A960FB6F894DEBF0FBECDBFDF91CF9163
:1016B0001F910F91FF90EF9008950F931F938091CA
:1016C000FE02811119C060E08FE00E944209809102
:1016D000E00261E0811101C060E084E393E00E94D8
:1016E000540981E08093FE028091FF02882321F05B
:1016F0008150990B0E9476090E94C30400918C02CC
:1017000010918D0220918E0230918F02601B710B1F
:10171000820B930B643671058105910508F470C046
:101720000E94C30460938C0270938D0280938E029A
:1017300090938F028091FF02882309F461C061E0D9
:101740008DE00E9442098FEA91E00E94FB0760E071
:1017500087E00E94420983EB91E00E94FB0761E071
:1017600087E00E9442098091E702811104C088EB62
:1017700091E00E94FB078091E702813021F48DEB1C
:1017800091E00E94FB078091E702823021F482EC15
:1017900091E00E94FB078091C60281111EC06091FA
:1017A000BE027091BF028091C0029091C10220E000
:1017B00041E00E942C0B8091E7028823B9F06091F0
:1017C000E3027091E4028091E5029091E60221E04B
:1017D00041E01F910F910C942C0B60E081E00E947E
:1017E000420987EC91E00E94FB07E5CF61E081E0D0
:1017F0000E94420987EC91E01F910F910C94FB0726
:101800001F910F91089585E10E945404BC01990F26
:10181000880B990B0E94401A9B01AC0160E070ECB0
:101820008FE794E40E94721C20E030E040E85FE320
:101830000E94051C20E030E44CE156E40E949F1A0F
:101840009B01AC0160E070E48CE196E40E94721CA4
:101850000E94271D2CE23BEB44E859E30E949F1AAB
:101860002FE03FEC4BE55BE30E94061C9B01AC01C3
:1018700060E070E080E89FE30E94721C23E333E99C
:1018800048E853E40E94051C20E030E040E05FE3BC
:101890000E94061C0E94E41C6F5F7F4F77FF07C009
:1018A0001092EB021092EA0268EC70E02DC0CB01BE
:1018B0006436710514F083E690E09093EB02809318
:1018C000EA026531710584F36C33710504F5BC01DE
:1018D00064517109072E000C880B990B0E94401A65
:1018E00020E030E040E252E40E94721C20E030EE42
:1018F0004EEA54E40E949F1A20E030E048E453E4AA
:101900000E94061C0E94E41C8AE00C94F7036FE31B
:1019100076E0FACF1F920F920FB60F9211242F93F9
:101920003F934F935F936F937F938F939F93AF9367
:10193000BF93EF93FF938091280390912903A09187
:101940002A03B0912B03892B8A2B8B2BD1F19091F9
:101950002303E0912403F09125038081892780836C
:101960008091280390912903A0912A03B0912B0321
:10197000181619061A061B069CF4809128039091EC
:101980002903A0912A03B0912B030197A109B10962
:101990008093280390932903A0932A03B0932B03E9
:1019A000FF91EF91BF91AF919F918F917F916F9137
:1019B0005F914F913F912F910F900FBE0F901F900D
:1019C0001895809138010E942A02EACF1F920F9247
:1019D0000FB60F9211242F933F938F939F93AF9342
:1019E000BF938091950290919602A0919702B09139
:1019F00098023091940223E0230F2D3758F5019679
:101A0000A11DB11D2093940280939502909396029C
:101A1000A0939702B09398028091990290919A02B4
:101A2000A0919B02B0919C020196A11DB11D8093D3
:101A3000990290939A02A0939B02B0939C02BF914B
:101A4000AF919F918F913F912F910F900FBE0F906B
:101A50001F90189526E8230F0296A11DB11DD2CF25
:101A6000CF93DF9300D000D0CDB7DEB7789484B5A4
:101A7000826084BD84B5816084BD85B5826085BD8A
:101A800085B5816085BD80916E00816080936E0018
:101A9000109281008091810082608093810080910A
:101AA00081008160809381008091800081608093BB
:101AB00080008091B10084608093B1008091B0007B
:101AC00081608093B00080917A00846080937A0076
:101AD00080917A00826080937A0080917A008160A0
:101AE00080937A0080917A00806880937A001092C7
:101AF000C1001092010161E087E00E94560260E09F
:101B000087E00E94FC0161E085E00E94560282E0CD
:101B10000E94A10861E08CE00E94560262E082E12E
:101B20000E94560262E08EE00E94560262E081E16D
:101B30000E94560260E083E10E94560260E084E168
:101B40000E94560261E089E00E94560261E08DE049
:101B50000E94560260E08DE00E94FC0182E88093C2
:101B6000800089E1809381008FE396E09093870065
:101B7000809386000E94380166E073E090E080E088
:101B80000E94E80A62EC72E082E090E00E94060B9C
:101B900068EE72E086E090E00E94E80A67EE72E08C
:101BA00081E290E00E94FC0A63EE72E082E290E043
:101BB0000E94060B62E371E086E290E00E94FC0A5C
:101BC0008AE090E00E945D1B91E0811101C090E0ED
:101BD0009093C60280910603909107039093890029
:101BE000809388006091320170E085E00E94F703E5
:101BF0006AE271E080E00E945A0962E271E081E0ED
:101C00000E945A096AE171E082E00E945A0962E189
:101C100071E083E00E945A096AE071E084E00E946A
:101C20005A0962E071E085E00E945A0982E10E944F
:101C3000D301892B09F099C081E10E94D301892B3E
:101C400009F093C060E080E00E9442098EEC91E0D0
:101C50000E94FB0782E10E94D301892BD9F381E125
:101C60000E94D301892BB1F368EE73E080E090E02D
:101C70000E9491040E94990885E08093FF0201E090
:101C80003EE0A32E49E0942E55E0852E6AE0462ED4
:101C900067ED562E63E2662E6DE3762E72E8272EF0
:101CA000312C81E10E94D301892B09F0E0C1C114DC
:101CB000D104E104F10421F40E94C3046B017C010E
:101CC0000E94C3046C197D098E099F09693E734007
:101CD0008105910508F4F8C10E9499080E94DA066E
:101CE00060E080E00E9442098FED91E00E94FB07D6
:101CF0006CE271E080E090E00E9491048CEE91E053
:101D00000E94FB0760E971E080E090E00E9491048E
:101D10008CEE91E00E94FB0760E971E080E090E0CA
:101D20000E9491048CEE91E00E94FB0760E971E053
:101D300080E090E00E9491040E94990860E08CE0AD
:101D40000E94FC0160E08DE00E94FC0181E10E94A4
:101D5000D301892BD9F364EF71E080E090E00E9419
:101D600091040E9499081092FF026EEA72E08CE0E2
:101D700090E00E94060B6AEA72E080E190E00E9427
:101D8000060B66EA72E084E190E00E94060B62EACC
:101D900072E088E190E00E94060B60E080E00E9423
:101DA000420980E292E00E94FB076CE271E080E071
:101DB00090E00E9491048CEE91E00E94FB0760E9A4
:101DC00071E080E090E00E9491048CEE91E00E942E
:101DD000FB0760E971E080E090E00E9491048CEEE6
:101DE00091E00E94FB0760E971E080E090E00E94D2
:101DF00091040E94990888E2882E912CA12CB12C84
:101E000097E0292E312C2DEC422E2CEC522E20E284
:101E1000622E21E4722E8091880090918900909327
:101E20000703809306030E94C304009102031091EC
:101E300003032091040330910503601B710B820B97
:101E4000930B683C71058105910570F00E94C304F5
:101E5000609302037093030380930403909305033C
:101E60000E94030C0E94D3048CE00E94D3018C01D9
:101E700081E10E94D30121E0009709F020E0209346
:101E8000B402892BE1F48091B302811118C0F09063
:101E9000B20291E0F926F092B2026F2D8DE00E941D
:101EA000FC016F2D8CE00E94FC0160E08DE00E943F
:101EB00042098BE192E00E94FB070E940A07809191
:101EC000B4028093B3022091BE023091BF024091D0
:101ED000C0025091C1026091F0027091F1028091B4
:101EE000F2029091F3020E941A1D181604F5012BBC
:101EF000F1F08091C60281111AC060E08CE00E946E
:101F0000FC0160E08DE00E94420964E084E393E01C
:101F10000E9454098CE291E00E94920260ED77E009
:101F200080E090E00E94910483E00E942A0282E116
:101F30000E94D30111E0009709F010E01093010313
:101F4000892BA1F480910003811110C08091FF02C0
:101F50008F5F853008F0A6C48093FF020E940A07B5
:101F60000E9499081092FE021092FD021093000345
:101F70008091FF02823009F4CFC608F096C488230E
:101F800009F413C5813009F4EAC58091FF02882362
:101F9000E9F00E94C3040091CA021091CB02209183
:101FA000CC023091CD02601B710B820B930B603D14
:101FB00074488105910550F00E9499081092FF0223
:101FC0001092FE021092FD020E94DA060E94C304E3
:101FD0000091CE021091CF022091D0023091D10217
:101FE000601B710B820B930B603177428105910569
:101FF000B0F10E94C3046093CE027093CF0280932D
:10200000D0029093D102609106037091070390E093
:1020100080E00E943E1A20913301309134014091BA
:102020003501509136010E94391A8823C1F00E946F
:10203000B40666E073E090E080E00E94760A60916A
:1020400006037091070390E080E00E943E1A6093BF
:10205000330170933401809335019093360140E051
:1020600050E0452B09F4D7CE0E940000D4CEC11415
:10207000D104E104F10441F1B0260E94C3046C19BB
:102080007D098E099F09683E734081059105C8F45A
:102090008DE00E94D30161E0892B09F060E08DE0C2
:1020A0000E94FC018CE00E94D30161E0892B09F0C1
:1020B00060E08CE00E94FC01BB2009F497C10E9403
:1020C0000A07C12CD12C76010E94030C0E9409063C
:1020D0006EEA72E08CE090E00E94060B6AEA72E021
:1020E00080E190E00E94060B66EA72E084E190E0F5
:1020F0000E94060B62EA72E088E190E00E94060B03
:1021000062E371E086E290E00E94FC0A8091A10205
:102110001091FF0281116DC182E10E94D301892BD0
:10212000E9F41F5F1093FF02193010F08092FF0254
:102130000E940A0766E970E080E090E00E94910446
:102140000E94C304605971408109910960939D0206
:1021500070939E0280939F029093A0020E94C304FA
:102160001091FF0220919D0230919E0240919F02AA
:102170005091A002621B730B840B950B6039714068
:102180008105910508F41AC10E94D3040E94C3047A
:1021900060939D0270939E0280939F029093A00291
:1021A00015501930B0F48091F80246E5811101C054
:1021B00046E760E08FE00E94550A6091F40270915A
:1021C000F5028091F6029091F70220E049E00E942A
:1021D0002C0B8091A10281112AC048E461E087E0C4
:1021E0000E94550A6091AE027091AF028091B002D8
:1021F0009091B10221E041E00E942C0B4CE460E0A0
:1022000087E00E94550A6091AA027091AB0280910A
:10221000AC029091AD0220E041E00E942C0B61E005
:1022200089E00E9442098EEE91E00E94FB0740E2A5
:1022300060E080E00E94550A40E260E088E00E9491
:10224000550A40E261E080E00E94550A40E261E008
:1022500088E00E94550A40E261E088E00E94550A49
:102260008091A102813009F054C08091FF02895011
:10227000833088F441E461E08FE00E94550A609168
:10228000F0027091F1028091F2029091F30221E04C
:1022900049E00E942C0B8091FF028C3041F461E0F8
:1022A00089E00E9442098EEE91E00E94FB07809136
:1022B000FF028D3041F461E089E00E94420986EF1F
:1022C00091E00E94FB074FE660E087E00E94550A1C
:1022D00060E081E00E9442096091A6027091A7022D
:1022E0008091A8029091A9020E94900943E761E0C1
:1022F00087E00E94550A61E081E00E9442096091F6
:10230000A2027091A3028091A4029091A5020E9462
:1023100090098091A102823009F046C060E081E01E
:102320000E9442098EEF91E00E94FB0760E086E088
:102330000E94420989E192E00E94FB0760E08AE086
:102340000E94420984E092E00E94FB0760E086E080
:102350000E9442096091320170E090E080E04AE022
:102360000E94B70740E260E089E00E94550A809130
:10237000FF02803169F061E081E00E9442098BE058
:1023800092E00E94FB0740E260E089E00E94550A6B
:102390008091FF02813141F461E081E00E944209B5
:1023A0008EEE91E00E94FB079091FF02292F30E012
:1023B000992309F476CCC9010E947609E091FF02C5
:1023C000E550ED3008F06DCCF0E0E751FE4E0C9496
:1023D000BD1D1C1221126612AB121C12B612211363
:1023E0009C13A813B313EF13AB12A8130E94DA06C1
:1023F00068CE813079F482E10E94D301892B09F003
:10240000ADCE1F5F1093FF021E3008F491CE909264
:10241000FF028ECE823009F0A1CE82E10E94D3016C
:10242000892B09F09BCE1F5F1093FF02123108F435
:102430007FCEA092FF027CCE0E943A070E943A070C
:1024400030CC8091BD028230F0F02FE632E143E8DB
:102450005AE36091AA027091AB028091AC02909114
:10246000AD020E94061C6093AA027093AB02809397
:10247000AC029093AD020E94B4066AEA72E080E179
:1024800090E00E949D0A8091BD0281110ACC2FE646
:1024900032E143E85AE36091AA027091AB02809165
:1024A000AC029091AD020E94051C6093AA02709349
:1024B000AB028093AC029093AD020E94B4066AEA2C
:1024C00072E080E190E00E949D0AEBCB8091BD021A
:1024D0008230F0F02FE632E143E85AE36091AE0239
:1024E0007091AF028091B0029091B1020E94061CDF
:1024F0006093AE027093AF028093B0029093B102EA
:102500006EEA72E08CE090E00E949D0A0E94B406A0
:102510008091BD028111C5CB2FE632E143E85AE339
:102520006091AE027091AF028091B0029091B102C1
:102530000E94051C6093AE027093AF028093B002BC
:102540009093B1026EEA72E08CE090E00E949D0AE6
:102550000E94B406A6CB8EE00E94D301892B09F01D
:10256000A0CB9092FF020093A1029BCB8091BD0271
:10257000823090F127E137EB41ED58E36091A602FC
:102580007091A7028091A8029091A9020E94061C56
:102590006093A6027093A7028093A8029093A90269
:1025A00027ED33EA40E250E40E941A1D87FD0CC07B
:1025B00087ED93EAA0E2B0E48093A6029093A7028D
:1025C000A093A802B093A9020E94B40666EA72E042
:1025D00084E190E00E949D0A8091BD02811161CB4F
:1025E00027E137EB41ED58E36091A6027091A70215
:1025F0008091A8029091A9020E94051C6093A602F6
:102600007093A7028093A8029093A90229E23CE567
:102610004FE150E40E94391A181664F089E29CE5F3
:10262000AFE1B0E48093A6029093A702A093A80222
:10263000B093A9020E94B40666EA72E084E190E0D9
:1026400042CF8091BD028230D0F127E137EB41EDDE
:1026500058E36091A2027091A3028091A40290912C
:10266000A5020E94061C6093A2027093A3028093AD
:10267000A4029093A5020E94B4062EEA37E441E634
:102680005EE36091A2027091A3028091A4029091F6
:10269000A5020E941A1D87FD0CC08EEA97E4A1E6F0
:1026A000BEE38093A2029093A302A093A402B093EE
:1026B000A50262EA72E088E190E00E949D0A8091A2
:1026C000BD028111EECA27E137EB41ED58E360917D
:1026D000A2027091A3028091A4029091A5020E948F
:1026E000051C6093A2027093A3028093A4029093AE
:1026F000A5020E94B4062FE832EC45EF5CE360913E
:10270000A2027091A3028091A4029091A5020E945E
:10271000391A181664F08FE892ECA5EFBCE38093A9
:10272000A2029093A302A093A402B093A50262EA2E
:1027300072E088E190E0C7CE8EE00E94D301892B41
:1027400009F0AFCAA092FF0282E08093A102A9CA59
:102750008EE00E94D301892B09F0A3CA8092FF0268
:102760001092A1029ECA8091BD028230D0F0809169
:1027700032018F5F809332010E94B4068091320152
:102780008E3F18F08EEF809332016091320170E03D
:1027900085E00E94F70362E371E086E290E00E9428
:1027A000D00A8091BD0281117CCA80913201815092
:1027B000809332010E94B40680913201823010F47D
:1027C000009332016091320170E085E00E94F703CE
:1027D00062E371E086E290E00E94D00A62CA8EE075
:1027E0000E94D301892B09F05CCA49825A826B820C
:1027F0007C82BE016F5F7F4F80E190E00E949D0A66
:1028000087E399E8A1E8BFE389839A83AB83BC831C
:10281000BE016F5F7F4F8CE090E00E949D0A80E0D8
:1028200090E0A0E2B0E489839A83AB83BC83BE01CD
:102830006F5F7F4F84E190E00E949D0A8DEC9CECDD
:10284000ACECBDE389839A83AB83BC83BE016F5F2D
:102850007F4F88E190E00E949D0A3A822982BE0162
:102860006F5F7F4F86E290E00E94760A62E870E038
:1028700085E00E94F70360E08EE00E9442098DE14E
:1028800092E00E94FB0760E273E080E090E00E942B
:10289000910460E08EE00E9442098AE192E00E9489
:1028A000FB07FFC91092FF0259CB833009F483C2A2
:1028B000843009F06ACB8EE00E94D301892BB9F4F1
:1028C0008091FD02811113C01092DF021092DE028E
:1028D0000E94990860E080E00E9442098CE292E048
:1028E0000E94FB070E940A07A1E0A093FD028091CD
:1028F000FD02882309F430C10E94C3040091DA026A
:102900001091DB022091DC023091DD02601B710B23
:10291000820B930B683572408105910508F435CB25
:102920000E94C3046093DA027093DB028093DC029E
:102930009093DD0261E080E00E944209F12CE12CDD
:102940000091DE021091DF02C090D802D090D9022F
:10295000C8018E0D9F1DB6010E94A91D2091D602AF
:102960003091D7028217930738F4E091D202F091A8
:10297000D302309709F03BC21092C902E9ECF2E0B1
:1029800080810E9487092FEFE21AF20A40E1E416E3
:10299000F104B1F60F5F1F4F0C151D050CF02AC294
:1029A0001093DF020093DE02F0CA0E9409060E9423
:1029B0003A070E94C3040091F9021091FA02209193
:1029C000FB023091FC02601B710B820B930B6C328B
:1029D00071408105910508F4F9CA0E94C30460930F
:1029E000F9027093FA028093FB029093FC028091AB
:1029F000F80246E5811101C046E760E086E00E94EA
:102A0000550A6091F4027091F5028091F60290915E
:102A1000F70220E040E00E942C0B41E461E086E0F8
:102A20000E94550A6091F0027091F1028091F202C9
:102A30009091F30221E040E00E942C0B47E561E019
:102A40008EE00E94550A6091EC027091ED02809137
:102A5000EE029091EF0221E048E00E942C0B43E04F
:102A600060E08AE00E94550A60E088E00E94420926
:102A70008091EA029091EB020A9724F488E392E0B5
:102A80000E94FB07C090EA02D090EB020D2C000CD4
:102A9000EE08FF084AE0C701B601F7FE0BC08DE261
:102AA0000E94870966277727CB016C197D098E095B
:102AB0009F094AE00E94B7072091EA023091EB0299
:102AC000032E000C440B550B2451310941095109C7
:102AD000A7E0B0E00E94921BA50194010E94731B25
:102AE0002F5F3F4F4F4F5F4F2930310514F028E0E3
:102AF00030E037FF02C030E020E01092B5021092C3
:102B0000B6021092B7021092B8021092B902109257
:102B1000BA021092BB02BFE1B093BC02E5EBF2E057
:102B200087E090E0A101421B530B9A0131972817CF
:102B3000390724F45FE150870197F8CF65EB72E025
:102B400087E00E945A0960E08BE00E94420967E03A
:102B500084E393E00E9454090E945D0B16CA0E9410
:102B600009068EE00E94D30121E0009709F020E0E1
:102B70002093C802892B99F48091C70281110FC05C
:102B80001091C60281E018271093C6021111A7C048
:102B90000E940A07612F8AE090E00E94651B8091E5
:102BA000C8028093C7028091C60281118AC08091B9
:102BB000FF02813089F66091C2027091C302809158
:102BC000C4029091C5026093BE027093BF028093CD
:102BD000C0029093C1022091BD02223080F12DEC01
:102BE0003CEC4CEC5DE30E94061C6B017C0120E098
:102BF00030E040E251E40E941A1D87FF73C0C0928A
:102C0000C202D092C302E092C402F092C502809147
:102C1000C2029091C302A091C402B091C5028093F8
:102C2000BE029093BF02A093C002B093C1020E9463
:102C3000B40662EC72E082E090E00E949D0A80910E
:102C4000BD02811139C02DEC3CEC4CEC5DE3609190
:102C5000C2027091C3028091C4029091C5020E9489
:102C6000051C6B017C012DEC3CEC4CEC5DE30E94FF
:102C7000391A18160CF043C0C092C202D092C30297
:102C8000E092C402F092C5028091C2029091C30208
:102C9000A091C402B091C5028093BE029093BF027E
:102CA000A093C002B093C1020E94B40662EC72E02D
:102CB00082E090E00E949D0A8091C602882309F478
:102CC0004BCF8091FF02813009F046CF4092BE0287
:102CD0005092BF026092C0027092C1023DCF0E942A
:102CE000DA0658CF80E090E0A0E2B1E48093C2021F
:102CF0009093C302A093C402B093C50288CF8DEC19
:102D00009CECACECBDE38093C2029093C302A09311
:102D1000C402B093C502B8CF0E945D0B8EE00E9442
:102D2000D30111E0009709F410E02091370122232C
:102D3000C9F1892BB9F5809106039091070390930F
:102D4000E9028093E8028091E7028F5F833068F5A3
:102D50008093E7028091E702813051F50E940A07D3
:102D600068EE72E086E090E00E94760A64EF72E01E
:102D700082E290E00E949D0A8091F4029091F50217
:102D8000A091F602B091F7028093E3029093E402DF
:102D9000A093E502B093E60267EE72E081E290E074
:102DA0000E94D00A10933701F0C81092E702D2CFE8
:102DB0000E94DA06F1CF8EE00E94D30111E0009765
:102DC00009F010E01093E202892B71F48091E10286
:102DD00081110AC08091E00291E089278093E0028E
:102DE0001092FE020E940A071093E102B5CEE80F8E
:102DF000F91FC6CD1092DF021092DE02C6C8CF9333
:102E0000109237031092360383E591E090933503D7
:102E10008093340388E0809338038FEF80933903E5
:102E200086E080933A0384E080933B0382E08093C2
:102E30003C0310923D0381E080933E0310923F03D8
:102E400010924003109241031092420310924303E8
:102E50000E94A10882E090E090930D0380930C0300
:102E60008FEF9FEF90930B0380930A0390930903D6
:102E70008093080310920F03109210031092110315
:102E80001092120310920E03109213031092140367
:102E90001092150310921603109217031092180344
:102EA0001092190310921A030E94C30460931B032B
:102EB00070931C0380931D0390931E0360931F0364
:102EC00070932003809321039093220380E190E08C
:102ED00090930903809308038FE090E090930B0395
:102EE00080930A0362E080E10E94560262E08FE074
:102EF0000E945602809108030E94D301C82F80913E
:102F00000A030E94D301880F991F8C2B80930E0314
:102F10001092D3021092D2021092D5021092D402D3
:102F20001092D7021092D60262E570E090E080E045
:102F30000E94FC1E009709F19093D3028093D20265
:102F400021E530E03093D5022093D4022091D602BF
:102F50003091D702232B11F4FC01108281E590E01F
:102F60009093D7028093D6026AE372E08091D202F6
:102F70009091D3020E94C21F14C08091D2029091FE
:102F8000D302009711F00E94731E1092D302109288
:102F9000D2021092D7021092D6021092D50210924D
:102FA000D4028091D6029091D7029093D902809357
:102FB000D802CF9108958091D2029091D3020097C8
:102FC00011F00C94731E0895EF920F931F93CF93FB
:102FD000DF93E80134E047FD34E1042E000C550B8B
:102FE00057FF03C0519541955109E32E022F242F1D
:102FF000AE010E940218CE01DF91CF911F910F9177
:10300000EF900895A9E0B0E0E8E0F8E10C94A31B8C
:103010006A01F22EB02E102FFBE3AF2EA01608F49B
:103020001BE31F5F012F27E0AE014F5F5F4F0E9440
:103030006119BC018981982F9970913009F43FC0C2
:103040009BE2E1FC04C09E2D9170E0FC3AC05E2D35
:103050005071E82FE87083FF46C084E0911101C0F1
:1030600083E0EF2DE81B8F1508F0E0E0D6018E2FEE
:1030700020E2552351F1992329F0D6019C93C601F2
:1030800001966C0196012D5F3F4FE2FE24C08EE455
:10309000D6018C9391E411969C93119712968C9380
:1030A000D9018E2F90E281111BC0E20FF32FF11D89
:1030B00010828EEF9FEF2996ECE00C94BF1B9DE2EF
:1030C000C6CF90E2C4CF2D9381508111FCCFCE0E9C
:1030D000D11CE0E0D0CF8EE6D6018C9391E6DBCF19
:1030E0009D938150E0CF482F447082FF3DC084E023
:1030F000911101C083E08F1510F4EF2DE81BD6016C
:103100008E2F20E2552309F1992329F0D6019C93B3
:10311000C60101966C0196012D5F3F4FE2FE1BC078
:1031200089E4D6018C938EE411968C93119786E4F2
:1031300012968C93D9018E2F90E2882309F4B5CF93
:103140009D938150FACF2D9381508111FCCFCE0EEB
:10315000D11CE0E0D9CF89E6D6018C938EE611969A
:103160008C93119786E6E4CF9B0177FF02C030E095
:1031700020E0A1E0B0E0911102C0B0E0A0E0F901D0
:103180003196AE0FBF1F8B2C912CBB2009F461C070
:103190005401EFEFAE1ABE0AAA0DBB1DFA161B06AC
:1031A00019F014F04F2D4A1B511188C0E3FC59C08F
:1031B0007601A42FB0E2A1114FC0C40ED11C9923F7
:1031C00009F45BC040E0D6011196F60190836D01D1
:1031D000552309F448C0012F060F9A81582F5071CA
:1031E00084FF03C0913309F4015010160CF047C05E
:1031F000093008F008E0EEE2FE2E5B01A01AB108EB
:1032000085019194819491082F3F320729F4D601CA
:10321000FC92F60131966F016217730794F1021761
:1032200013077CF5DB01A21BB30BAA24A394B12CDA
:10323000AC0EBD1EAA0DBB1D11968C9121503109FB
:10324000D601119628153905F4F0F60180836D0139
:10325000DBCFB12CA12CA0CFF701B1937F01A150FE
:10326000AACF9111B0CFD601942F50E302C05D9345
:1032700091509111FCCFC40ED11C40E0ACCF01E0C5
:10328000BACF80E3DBCF6217730731F4963388F44B
:10329000953311F4552369F0F6018083FD01842FE5
:1032A00090E2811108C0A40FB11D1C9290E080E053
:1032B00002CF81E3F1CF91938150F3CF911183CF6E
:1032C0008ACF283008F027E03327DA01990F311D23
:1032D00087FD916000966105710539F432602E5FBB
:1032E0003D9330E32A95E1F708959F3F30F0803811
:1032F0007105610509F03C5F3C5F3D93913008F03A
:103300008068911DDF93CF931F930F93FF92EF92ED
:10331000192F987F9695E92F96959695E90FFF2797
:10332000E45EFE4F99273327EE24FF24A701E7012F
:1033300005900894079428F4360FE71EF81E491FDD
:10334000511D660F771F881F991F0694A1F70590DE
:10335000079428F4E70EF81E491F561FC11D770F6A
:10336000881F991F661F0694A1F70590079428F4FB
:10337000F80E491F561FC71FD11D880F991F661FC2
:10338000771F0694A1F70590079420F4490F561F64
:10339000C71FD81F990F661F771F881F0694A9F7AC
:1033A00084911095177041F0D695C795579547951C
:1033B000F794E7941A95C1F7E2ECF0E06894159061
:1033C000159135916591959105907FE27395E1187E
:1033D000F10A430B560BC90BD009C0F7E10CF11EE3
:1033E000431F561FC91FD01D7EF4703311F48A95F8
:1033F000E6CFE894015030F0080F0AF400270217D6
:1034000008F4202F2395022F7A3328F079E37D9357
:103410002A95E9F710C07D932A9589F60694979529
:103420006795379517951794E118F10A430B560BDA
:10343000C90BD00998F023957E9173957A3308F0E3
:1034400070E37C932013B8F77E9170617D9330F028
:10345000839571E37D9370E32A95E1F71124EF9052
:10346000FF900F911F91CF91DF91992787FD909544
:1034700008950E947B1A08F481E00895E89409C039
:1034800097FB3EF490958095709561957F4F8F4F97
:103490009F4F9923A9F0F92F96E9BB279395F695AD
:1034A000879577956795B795F111F8CFFAF4BB0F2B
:1034B00011F460FF1BC06F5F7F4F8F4F9F4F16C08F
:1034C000882311F096E911C0772321F09EE8872F19
:1034D000762F05C0662371F096E8862F70E060E0D5
:1034E0002AF09A95660F771F881FDAF7880F96954E
:1034F000879597F90895990F0008550FAA0BE0E8F2
:10350000FEEF16161706E807F907C0F012161306A5
:10351000E407F50798F0621B730B840B950B39F4E5
:103520000A2661F0232B242B252B21F408950A264B
:1035300009F4A140A6958FEF811D811D08950E9479
:10354000B21A0C94231B0E94151B38F00E941C1BFE
:1035500020F0952311F00C940C1B0C94121B1124D9
:103560000C94571B0E94341B70F3959FC1F3950F69
:1035700050E0551F629FF001729FBB27F00DB11DF7
:10358000639FAA27F00DB11DAA1F649F6627B00D87
:10359000A11D661F829F2227B00DA11D621F739F70
:1035A000B00DA11D621F839FA00D611D221F749F7E
:1035B0003327A00D611D231F849F600D211D822FC5
:1035C000762F6A2F11249F5750409AF0F1F08823EC
:1035D0004AF0EE0FFF1FBB1F661F771F881F915019
:1035E0005040A9F79E3F510580F00C940C1B0C94A1
:1035F000571B5F3FE4F3983ED4F386957795679524
:10360000B795F795E7959F5FC1F7FE2B880F911D42
:103610009695879597F9089597F99F6780E870E0E8
:1036200060E008959FEF80EC089500240A94161638
:10363000170618060906089500240A9412161306A0
:10364000140605060895092E0394000C11F488232E
:1036500052F0BB0F40F4BF2B11F460FF04C06F5F4A
:103660007F4F8F4F9F4F089557FD9058440F551F20
:1036700059F05F3F71F04795880F97FB991F61F0F4
:103680009F3F79F087950895121613061406551F6B
:10369000F2CF4695F1DF08C0161617061806991FD7
:1036A000F1CF86957105610508940895E894BB27CC
:1036B00066277727CB0197F90895F999FECF92BD38
:1036C00081BDF89A992780B50895262FF999FECFE4
:1036D0001FBA92BD81BD20BD0FB6F894FA9AF99A2F
:1036E0000FBE01960895052E97FB1EF400940E94CC
:1036F0008A1B57FD07D00E94D41B07FC03D04EF451
:103700000C948A1B50954095309521953F4F4F4F13
:103710005F4F089590958095709561957F4F8F4F7D
:103720009F4F08950E94F61BA59F900DB49F900D8A
:10373000A49F800D911D112408952F923F924F92C6
:103740005F926F927F928F929F92AF92BF92CF9231
:10375000DF92EF92FF920F931F93CF93DF93CDB73A
:10376000DEB7CA1BDB0B0FB6F894DEBF0FBECDBFB2
:1037700009942A88398848885F846E847D848C8483
:103780009B84AA84B984C884DF80EE80FD800C818C
:103790001B81AA81B981CE0FD11D0FB6F894DEBF6F
:1037A0000FBECDBFED010895A1E21A2EAA1BBB1BCF
:1037B000FD010DC0AA1FBB1FEE1FFF1FA217B307FD
:1037C000E407F50720F0A21BB30BE40BF50B661F13
:1037D000771F881F991F1A9469F7609570958095D7
:1037E00090959B01AC01BD01CF010895A29FB0014E
:1037F000B39FC001A39F700D811D1124911DB29F25
:10380000700D811D1124911D08955058BB27AA27C2
:103810000E941D1C0C94231B0E94151B38F00E9453
:103820001C1B20F039F49F3F19F426F40C94121B52
:103830000EF4E095E7FB0C940C1BE92F0E94341B5F
:1038400058F3BA17620773078407950720F079F4D5
:10385000A6F50C94561B0EF4E0950B2EBA2FA02D56
:103860000B01B90190010C01CA01A0011124FF272D
:10387000591B99F0593F50F4503E68F11A16F04028
:10388000A22F232F342F4427585FF3CF4695379527
:103890002795A795F0405395C9F77EF41F16BA0BEC
:1038A000620B730B840BBAF09150A1F0FF0FBB1F9A
:1038B000661F771F881FC2F70EC0BA0F621F731FE3
:1038C000841F48F4879577956795B795F7959E3F40
:1038D00008F0B0CF9395880F08F09927EE0F9795D1
:1038E000879508950E94861C0C94231B0E941C1B24
:1038F00058F00E94151B40F029F45F3F29F00C940A
:103900000C1B51110C94571B0C94121B0E94341B5E
:1039100068F39923B1F3552391F3951B550BBB27FE
:10392000AA2762177307840738F09F5F5F4F220F43
:10393000331F441FAA1FA9F335D00E2E3AF0E0E83A
:1039400032D091505040E695001CCAF72BD0FE2F84
:1039500029D0660F771F881FBB1F26173707480718
:10396000AB07B0E809F0BB0B802DBF01FF279358D0
:103970005F4F3AF09E3F510578F00C940C1B0C946D
:10398000571B5F3FE4F3983ED4F386957795679590
:10399000B795F7959F5FC9F7880F911D9695879505
:1039A00097F90895E1E0660F771F881FBB1F621724
:1039B00073078407BA0720F0621B730B840BBA0BE2
:1039C000EE1F88F7E09508950E94EB1C6894B111F2
:1039D0000C94571B08950E943C1B88F09F5798F049
:1039E000B92F9927B751B0F0E1F0660F771F881F04
:1039F000991F1AF0BA95C9F714C0B13091F00E941E
:103A0000561BB1E008950C94561B672F782F88271A
:103A1000B85F39F0B93FCCF3869577956795B39544
:103A2000D9F73EF490958095709561957F4F8F4FB3
:103A30009F4F08950E947B1A08F48FEF089516F0A7
:103A40000C94741D0C94121B68940C940C1B0E9413
:103A50003C1BA8F39923C1F3AEF3DF93CF931F93DD
:103A60000F93FF92C92FDD2788232AF02197660F35
:103A7000771F881FDAF720E030E040E85FEB9FE334
:103A8000883920F0803E38F021968F770E94061CFE
:103A9000E8E6F0E004C00E94061CE5E9F0E00E94C0
:103AA000821D8B01BE01EC01FB2E6F5771097595CC
:103AB000771F880B990B0E94401A28E132E741E3F7
:103AC0005FE30E94B21AAF2D9801AE01FF900F91F3
:103AD0001F91CF91DF910E941D1C0C94231B0E940B
:103AE0007B1A880B990B08959F3F31F0915020F479
:103AF000879577956795B795880F911D96958795CA
:103B000097F90895DF93CF931F930F93FF92EF924E
:103B1000DF927B018C01689406C0DA2EEF010E94CF
:103B2000B21AFE01E894A5912591359145915591E0
:103B3000A6F3EF010E941D1CFE019701A801DA9473
:103B400069F7DF90EF90FF900F911F91CF91DF9178
:103B5000089597FB072E16F4009407D077FD09D03F
:103B60000E94C31D07FC05D03EF4909581959F4FA0
:103B70000895709561957F4F0895EE0FFF1F059092
:103B8000F491E02D0994AA1BBB1B51E107C0AA1FA9
:103B9000BB1FA617B70710F0A61BB70B881F991FEE
:103BA0005A95A9F780959095BC01CD0108950F9382
:103BB0001F93CF93DF938230910510F482E090E061
:103BC000E0914E03F0914F0330E020E0B0E0A0E040
:103BD000309799F42115310509F44AC0281B390B97
:103BE00024303105D8F58A819B816115710589F1F1
:103BF000FB0193838283FE0111C0408151810281C8
:103C0000138148175907E0F04817590799F410979E
:103C100061F012960C93129713961C933296CF0173
:103C2000DF91CF911F910F91089500934E03109350
:103C30004F03F4CF2115310551F04217530738F0E7
:103C4000A901DB019A01BD01DF01F801C1CFEF013C
:103C5000F9CF90934F0380934E03CDCFFE01E20F37
:103C6000F31F819391932250310939832883D7CF51
:103C700020914C0330914D03232B41F420913B01C3
:103C800030913C0130934D0320934C032091390136
:103C900030913A012115310541F42DB73EB74091DD
:103CA0003D0150913E01241B350BE0914C03F091F6
:103CB0004D03E217F307A0F42E1B3F0B281739071B
:103CC00078F0AC014E5F5F4F2417350748F04E0F78
:103CD0005F1F50934D0340934C03819391939FCF6B
:103CE000F0E0E0E09CCFCF93DF930097E9F0FC0198
:103CF000329713821282A0914E03B0914F03ED01CF
:103D000030E020E01097A1F420813181820F931FD1
:103D100020914C0330914D032817390709F061C0F9
:103D2000F0934D03E0934C03DF91CF910895EA01A6
:103D3000CE17DF07E8F54A815B819E0141155105E9
:103D4000B1F7E901FB83EA8349915991C40FD51F6B
:103D5000EC17FD0761F4808191810296840F951F15
:103D6000E90199838883828193819B838A83F0E030
:103D7000E0E012968D919C9113970097B9F52D91E3
:103D80003C911197CD010296820F931F20914C0315
:103D900030914D032817390739F6309751F51092B5
:103DA0004F0310924E03B0934D03A0934C03BCCF2E
:103DB000D383C28340815181840F951FC817D907CF
:103DC00061F44E5F5F4F88819981480F591F51837D
:103DD00040838A819B81938382832115310509F079
:103DE000B0CFF0934F03E0934E039ECFFD01DC0173
:103DF000C0CF13821282D7CFB0E0A0E0E2E0FFE1B3
:103E00000C949F1B8C01009751F4CB010E94D71D8D
:103E10008C01C801CDB7DEB7E0E10C94BB1BFC01FF
:103E2000E60FF71F9C0122503109E217F30708F44F
:103E30009DC0D901CD91DC911197C617D70798F095
:103E4000C530D10530F3CE0104978617970708F3E4
:103E5000C61BD70B2297C193D1936D937C93CF014F
:103E60000E94731ED6CF5B01AC1ABD0A4C018C0EAA
:103E70009D1EA0914E03B0914F03512C412CF12C6B
:103E8000E12C109731F580914C0390914D038815EA
:103E9000990509F05CC04616570608F058C0809195
:103EA000390190913A01009741F48DB79EB7409146
:103EB0003D0150913E01841B950BE817F90708F06E
:103EC00055C0F0934D03E0934C03F9017183608377
:103ED000A0CF8D919C91119712966C90129713968A
:103EE0007C901397A815B90559F56C0142E0C40EF2
:103EF000D11CCA14DB0420F1AC014A195B09DA01B8
:103F00001296159780F06282738251834083D901A3
:103F10006D937C93E114F10471F0D7011396FC9337
:103F2000EE93129776CF22968C0F9D1FF901918305
:103F30008083F301EFCFF0934F03E0934E0369CFFB
:103F40004816590608F42C017D01D3019ACFCB0104
:103F50000E94D71D7C01009749F0AE01B8010E9474
:103F6000B91FC8010E94731E870153CF10E000E003
:103F700050CFFB01DC0102C001900D924150504036
:103F8000D8F70895FB01DC0101900D920020E1F7C4
:103F9000089511E0CDE0D1E004C0FE010E94BD1DF6
:0C3FA0002196CE30D107C9F7F894FFCF6E
:103FAC00010100040607060400001F1B1B1B1F1B3E
:103FBC001F001C141C0000000000000E1111110E3B
:103FCC000000040E0E0E1F0A040A040E0E0E1F0033
:103FDC000400A0000080BF01FF000050038000001F
:103FEC00FF0100010000FFFF0000010001FF0000C5
:103FFC0000000054097D01D004CF04000000000E25
:10400C00000C000000080000000000080008000080
:10401C00000000080008000000090000000000007B
:10402C000001000000010000000000000001000180
:10403C000000000000010001000100000000000170
:10404C000001006E616E00696E66006F7666004955
:10405C006E6600496D6178005673657400566D612B
:10406C007800566C636B00204F66662020004D650F
:10407C006E7520646520536572766963696F0020E4
:10408C0020204755415244414E444F002E004E656E
:10409C007874202020004261636B20202000436F45
:1040AC006E743A00524553202020004261636B200D
:1040BC00202020202020202020202020004F4B00DA
:1040CC0020202043415247414E444F0046573A313D
:1040DC002E302D323630343130002020596F75544B
:1040EC00756265204D45656C656374726F6E6963AE
:1040FC0061204C5532455850206669726D7761725B
:10410C0065207570646174652070726F7965637475
:10411C006F2065647563617469766F206772617472
:0C412C007569746F2020202020202D00D9
:00000001FF
